{
  "_format": "hh-sol-artifact-1",
  "contractName": "Multisig",
  "sourceName": "contracts/Multisig.sol",
  "abi": [
    {
      "inputs": [
        {
          "internalType": "address[2]",
          "name": "_isOwner",
          "type": "address[2]"
        },
        {
          "internalType": "uint256",
          "name": "_numToSign",
          "type": "uint256"
        }
      ],
      "stateMutability": "nonpayable",
      "type": "constructor"
    },
    {
      "inputs": [],
      "name": "FundAlreadyWithdrew",
      "type": "error"
    },
    {
      "inputs": [],
      "name": "InvalidNumOfSigners",
      "type": "error"
    },
    {
      "inputs": [],
      "name": "InvalidTxnIndex",
      "type": "error"
    },
    {
      "inputs": [],
      "name": "MemberAlreadySigned",
      "type": "error"
    },
    {
      "inputs": [],
      "name": "NotAnOwner",
      "type": "error"
    },
    {
      "inputs": [],
      "name": "NotEnoughSignatories",
      "type": "error"
    },
    {
      "inputs": [],
      "name": "Unauthorised",
      "type": "error"
    },
    {
      "anonymous": false,
      "inputs": [
        {
          "indexed": true,
          "internalType": "address",
          "name": "sender",
          "type": "address"
        },
        {
          "indexed": false,
          "internalType": "uint256",
          "name": "value",
          "type": "uint256"
        }
      ],
      "name": "FundDonated",
      "type": "event"
    },
    {
      "anonymous": false,
      "inputs": [],
      "name": "FundTransferedSuccessfully",
      "type": "event"
    },
    {
      "inputs": [
        {
          "internalType": "uint256",
          "name": "_amount",
          "type": "uint256"
        }
      ],
      "name": "fund",
      "outputs": [],
      "stateMutability": "nonpayable",
      "type": "function"
    },
    {
      "inputs": [
        {
          "internalType": "address",
          "name": "",
          "type": "address"
        }
      ],
      "name": "isOwner",
      "outputs": [
        {
          "internalType": "bool",
          "name": "",
          "type": "bool"
        }
      ],
      "stateMutability": "view",
      "type": "function"
    },
    {
      "inputs": [],
      "name": "numToSign",
      "outputs": [
        {
          "internalType": "uint256",
          "name": "",
          "type": "uint256"
        }
      ],
      "stateMutability": "view",
      "type": "function"
    },
    {
      "inputs": [
        {
          "internalType": "uint256",
          "name": "",
          "type": "uint256"
        },
        {
          "internalType": "address",
          "name": "",
          "type": "address"
        }
      ],
      "name": "ownerSigned",
      "outputs": [
        {
          "internalType": "bool",
          "name": "",
          "type": "bool"
        }
      ],
      "stateMutability": "view",
      "type": "function"
    },
    {
      "inputs": [
        {
          "internalType": "uint256",
          "name": "",
          "type": "uint256"
        }
      ],
      "name": "owners",
      "outputs": [
        {
          "internalType": "address",
          "name": "",
          "type": "address"
        }
      ],
      "stateMutability": "view",
      "type": "function"
    },
    {
      "inputs": [
        {
          "internalType": "uint256",
          "name": "txnIndex",
          "type": "uint256"
        }
      ],
      "name": "signTransaction",
      "outputs": [],
      "stateMutability": "nonpayable",
      "type": "function"
    },
    {
      "inputs": [
        {
          "internalType": "uint256",
          "name": "",
          "type": "uint256"
        }
      ],
      "name": "signatory",
      "outputs": [
        {
          "internalType": "address",
          "name": "signer",
          "type": "address"
        },
        {
          "internalType": "uint256",
          "name": "amount",
          "type": "uint256"
        },
        {
          "internalType": "bool",
          "name": "executed",
          "type": "bool"
        },
        {
          "internalType": "uint256",
          "name": "signatureCount",
          "type": "uint256"
        }
      ],
      "stateMutability": "view",
      "type": "function"
    }
  ],
  "bytecode": "0x608060405234801561001057600080fd5b5060405161085e38038061085e83398101604081905261002f91610179565b80158061003c5750600281115b1561005a576040516321e38c0760e11b815260040160405180910390fd5b60005b60028110156100b557600180600085846002811061007d5761007d610204565b602090810291909101516001600160a01b03168252810191909152604001600020805460ff191691151591909117905560010161005d565b506100c360008360026100cd565b506002555061021a565b828054828255906000526020600020908101928215610122579160200282015b8281111561012257825182546001600160a01b0319166001600160a01b039091161782556020909201916001909101906100ed565b5061012e929150610132565b5090565b5b8082111561012e5760008155600101610133565b634e487b7160e01b600052604160045260246000fd5b80516001600160a01b038116811461017457600080fd5b919050565b6000806060838503121561018c57600080fd5b83601f84011261019b57600080fd5b604080519081016001600160401b03811182821017156101bd576101bd610147565b80604052508060408501868111156101d457600080fd5b855b818110156101f5576101e78161015d565b8352602092830192016101d6565b50519196919550909350505050565b634e487b7160e01b600052603260045260246000fd5b610635806102296000396000f3fe608060405234801561001057600080fd5b506004361061007d5760003560e01c80635d9ec2101161005b5780635d9ec2101461012857806378b03c3a1461013d578063aab44a4314610154578063ca1d209d1461018257600080fd5b8063025e7c27146100825780632f54bf6e146100b257806344082428146100e5575b600080fd5b61009561009036600461053f565b610195565b6040516001600160a01b0390911681526020015b60405180910390f35b6100d56100c0366004610574565b60016020526000908152604090205460ff1681565b60405190151581526020016100a9565b6100f86100f336600461053f565b6101bf565b604080516001600160a01b03909516855260208501939093529015159183019190915260608201526080016100a9565b61013b61013636600461053f565b610206565b005b61014660025481565b6040519081526020016100a9565b6100d5610162366004610596565b600360209081526000928352604080842090915290825290205460ff1681565b61013b61019036600461053f565b61032f565b600081815481106101a557600080fd5b6000918252602090912001546001600160a01b0316905081565b600481815481106101cf57600080fd5b600091825260209091206004909102018054600182015460028301546003909301546001600160a01b0390921693509160ff169084565b3360009081526001602052604090205460ff1661023657604051636bd1573560e11b815260040160405180910390fd5b60006004828154811061024b5761024b6105c2565b60009182526020909120600480549202019150821061027d57604051633629f37360e01b815260040160405180910390fd5b600082815260036020908152604080832033845290915290205460ff16156102b857604051635007b6b160e01b815260040160405180910390fd5b600281015460ff16156102de576040516340c92ff160e11b815260040160405180910390fd5b60008281526003602081815260408084203385529091528220805460ff191660011790558201805491610310836105d8565b919050555060025481600301541061032b5761032b82610491565b5050565b3360009081526001602052604090205460ff1661035f57604051636bd1573560e11b815260040160405180910390fd5b60408051608081018252338082526020808301858152600084860181815260608601828152600480546001810182559381905296517f8a35acfbc15ff81a39ae7d344fd709f28e8600b4aa8c65c6b64bfe7fe36bd19b9390970292830180546001600160a01b0319166001600160a01b039098169790971790965591517f8a35acfbc15ff81a39ae7d344fd709f28e8600b4aa8c65c6b64bfe7fe36bd19c82015590517f8a35acfbc15ff81a39ae7d344fd709f28e8600b4aa8c65c6b64bfe7fe36bd19d8201805460ff191691151591909117905592517f8a35acfbc15ff81a39ae7d344fd709f28e8600b4aa8c65c6b64bfe7fe36bd19e9093019290925591518381527f77673cf12bc10809c4fb66fdb3c126abd1f55ea23b96e783996555dddb177860910160405180910390a250565b6000600482815481106104a6576104a66105c2565b90600052602060002090600402019050600254816003015410156104dd5760405163a7caef8b60e01b815260040160405180910390fd5b600281015460ff1615610503576040516340c92ff160e11b815260040160405180910390fd5b60028101805460ff191660011790556040517fd4385443fd139cdba5f8116d23730707df84b2a41a9f6d727ce22f5f299f2ea490600090a15050565b60006020828403121561055157600080fd5b5035919050565b80356001600160a01b038116811461056f57600080fd5b919050565b60006020828403121561058657600080fd5b61058f82610558565b9392505050565b600080604083850312156105a957600080fd5b823591506105b960208401610558565b90509250929050565b634e487b7160e01b600052603260045260246000fd5b6000600182016105f857634e487b7160e01b600052601160045260246000fd5b506001019056fea2646970667358221220f8a9d88b89aae75ff6931b01ff7027d83e8461e94925fdbbca039976ed29e5ab64736f6c634300081c0033",
  "linkReferences": {},
  "deployedLinkReferences": {}
}